:020000040800F2
:10000000000008207D400008B1400008B140000811
:10001000B1400008B1400008B140000800000000F5
:100020000000000000000000000000004521000862
:10003000B140000800000000DB210008EB210008AF
:10004000B1400008B1400008B1400008B1400008CC
:10005000B1400008B1400008B1400008B1400008BC
:10006000B1400008B1400008B1400008B1400008AC
:10007000B1400008B1400008B1400008B14000089C
:10008000B1400008B1400008B14000087970000894
:100090006D700008B14000087D700008B140000894
:1000A000B1400008B1400008B1400008B14000086C
:1000B000B1400008B1400008B1400008B14000085C
:1000C000B1400008B1400008B1400008B14000084C
:1000D000B1400008B1400008B1400008B14000083C
:1000E000B1400008B1400008B1400008B14000082C
:1000F000B1400008B1400008B1400008B14000081C
:10010000B1400008B1400008B1400008B14000080B
:10011000B1400008B1400008B1400008B1400008FB
:10012000B1400008B1400008B1400008B1400008EB
:10013000B1400008590F0008B14000088D70000858
:1001400081700008B140000891700008B1400008BB
:10015000B1400008B1400008B1400008B1400008BB
:10016000B1400008B1400008B1400008B1400008AB
:10017000B1400008B1400008B14000080000000094
:10018000B1400008B1400008B1400008B14000088B
:10019000B1400008B1400008B1400008B14000087B
:1001A000B1400008B1400008B1400008B14000086B
:1001B000B1400008B1400008B1400008B14000085B
:1001C000B1400008B140000800000000B140000844
:1001D000B1400008B1400008B1400008B14000083B
:1001E000A170000895700008B1400008A5700008D3
:1001F000B1400008B140000810B5054C237833B970
:10020000044B13B10448AFF300800123237010BDE9
:10021000700C00200000000094FF000808B5034B9C
:100220001BB103490348AFF3008008BD0000000084
:10023000740C002094FF0008154B002B08BF134BD3
:100240009D46A3F5803A00218B460F461348144A79
:10025000121A09F053FC0F4B002B00D098470E4B9D
:10026000002B00D098470020002104000D000D480D
:10027000002802D00C4801F0F0FC08F06FFF2000CD
:10028000290001F0C9FE01F0E5FC00BF00000800F4
:10029000000008200000000029200008700C002049
:1002A000046000205B1C0008000000007047036829
:1002B000184708B10B6803607047704710B50446D3
:1002C00001F0F6FC204610BD0B4B10B503F12002E7
:1002D00003607C330446C0F8B420CC3040F8143CB2
:1002E00001F004FE04F1B40001F04CFA204600F0E5
:1002F00055FD204610BD00BF4CED0008A0F1B40034
:10030000E2E7A0F1B800DFE710B5044601F0F4FA27
:10031000237E1BB100F0E6FE0023237601F018FBDC
:10032000204610BD064A53681968136819421ABF5F
:10033000D2681B04926813600122024B1A70704746
:10034000FC0D0020FC010020064A53681968136860
:1003500019421ABFD2681B04926813600022024B34
:100360001A607047E00D0020340E002038B50446B6
:100370000D461C22002109F0C1FB2046294600F051
:100380002BFE204638BD000010B5054B044640F852
:10039000043B23690BB19B689847204610BD00BF02
:1003A00034ED0008034B10B504460360FFF7ECFF83
:1003B000204610BDD0EC000810B50446FFF7F2FF50
:1003C000204601F075FC204610BD10B50446FFF72D
:1003D000DBFF204601F06CFC204610BD10B5044642
:1003E00000F078FD064B10222046002140F8283B03
:1003F00009F084FB0123204684F8383010BD00BF8B
:1004000014EE0008C36810B504460BB19B6898470A
:10041000204610BD38B5074B0546044645F8283B35
:1004200000F02CFD2846FFF7EDFF204600F07AFD96
:10043000204638BD14EE000810B50446FFF7EAFF69
:10044000204601F035FC204610BD38B5CB68044687
:100450000D460BB15B689847EB682046E36038BDFA
:100460002DE97043044699460E46904601F044FA41
:10047000636B23B994F838300BB100F019FE04F126
:100480002805B54207D02846FFF7BCFF1DB131460D
:100490002846FFF7DAFF42464B46204600F0D6FCDE
:1004A000BDE8704301F054BA036870B50446051DF9
:1004B0007BB90D4E4FF0FF31306802F0C1FE23686A
:1004C00023B915B1284601F0F9FC2560306802F027
:1004D000D5FE2368AB4204D05D220449044801F0F4
:1004E00091F9206870BD00BF505B0020ECEC000863
:1004F00011ED000808B50448FFF7D6FF4FF0FF31B3
:10050000BDE8084001F0E2BC0810002008B503482F
:10051000FFF7CAFFBDE8084001F0E2BC0810002068
:1005200000B589B010220021354C684609F0E6FA82
:10053000344B694604A800930394FFF786FF04A98F
:1005400031482DA3D3E90023FFF78AFF04A8FFF762
:1005500059FF6846FFF756FF10220021684609F050
:10056000CDFA2A4B694604A800930394FFF76DFF68
:10057000002342F2107204A92548FFF771FF254CB1
:1005800004A8FFF73FFF6846FFF73CFF01F0B4F90E
:100590002149204607F08EFD01F0DAF901F0ACF9AF
:1005A000237E1BB900F084FD012323761B4C4FF002
:1005B0007A51DFED1B8A251D164807F065FB01F017
:1005C000C7F92046FFF796FF284606F0C5FC08EE5F
:1005D000100A2046FFF79AFF28EE288A1149124890
:1005E000B7EEC87A53EC172B01F0E6F80F4B002258
:1005F0001A70E6E7AFF30080404B4C0000000000AB
:10060000E0EC000849030008480F0020250300081B
:10061000880F0020C40D00200AD7233C8C0C00203A
:100620000000C84225ED0008080F0020FC01002052
:1006300010B50446FFF748FE204601F039FB20467E
:1006400010BDA0F1B400F3E7A0F1B800F0E700009E
:1006500073B5374E374C384D3046FFF7BFFE304646
:10066000364E2246294601F0F3FA3046FFF7B6FE31
:100670003046334E2246294601F0EAFA3046FFF76B
:10068000ADFE29462F4D2246304601F0E1FA4FF4E7
:10069000613339223821284600F034FA22462A49AB
:1006A000284601F0D5FA10212848FFF75FFE1721F0
:1006B0002748FFF75BFE1E212648FFF757FE264D11
:1006C00028212648FFF752FE254B28462B60FFF7CE
:1006D00011FF0321281D03F0EDFC2846FFF716FF4C
:1006E00022462049284601F0B3FA1F4D1F4B09222C
:1006F00019212846CDE900324023182200F074F871
:1007000022461B49284601F0A3FA1A4D00232B76F6
:1007100001F0F2F82846262107F0CEFB01F018F987
:1007200022461549284602B0BDE8704001F090BA53
:10073000480F0020F801002015040008880F002051
:10074000C80F0020540E0020C9020008E00D002050
:10075000FC0D0020180E00208C0C0020380E00200C
:10076000B8EC0008AD020008DC0C002040420F008D
:10077000A5030008C40D0020090300081FB5130AD3
:100780008DF80C108DF80E2003AA8DF80D30002383
:1007900000930323D0F8DC1000F00CF905B05DF8ED
:1007A00004FB10B504464FF400520521FFF7E6FFA5
:1007B00094F8D8300C2B11D00B2B12D00A2B0CBF75
:1007C0004FF48472802242F0070200212046FFF796
:1007D000D5FF14220123C4E9382310BD4FF48362EE
:1007E000F1E74FF40472EEE738B504461D4600F019
:1007F0003BF8094B6D000499236020469DF81430A6
:10080000C4F8DC5084F8D83000F0A4F82046FFF794
:10081000C8FF204638BD00BFD0EC0008884238B57C
:1008200004460D460AD0FFF7EDFD3CB1EB681BB165
:100830005B68294620469847EB68E360204638BD50
:1008400030B470B1D2E9004303F0010204B942B1FF
:100850005B10C5180AB1C3581C592846234630BC42
:10086000184730BC70470000344B2DE9F74304466D
:100870000D46164640F8043B1022002109F03EF9CF
:10088000002302A904F11802CDE9003311E90300A5
:1008900082E803002A49216248F207016162E362AB
:1008A000A4622263274A6263274AC2F88430BFF3F6
:1008B0004F8FD2F8803043F6E07EC3F3C907C3F30D
:1008C0004E334FEA877C5B0103EA0E0960463946E6
:1008D000013949EA000800F14040B1F1FF3FC2F898
:1008E0007482F5D1203B13F1200FEDD1BFF34F8F70
:1008F000BFF36F8FBFF34F8FBFF36F8F0021C2F82D
:100900005012BFF34F8FBFF36F8FBFF36F8FBFF3E3
:100910004F8F04F13C0384F838109822184609F0F0
:10092000EDF80A4A2946C4F8D420324606F0E8FE1B
:10093000074B20461C6003B0BDE8F08334ED00088F
:1009400001A090E84108000800ED00E0A086010049
:1009500058100020036870B504460D461B68984780
:1009600004F13C00C4F8D450294606F057FE044B6D
:1009700020461C602368BDE870405B68184700BFD4
:1009800058100020036870B5094D04461B6898474D
:100990002B68A34206D0D4F8D41004F13C0006F032
:1009A0003DFE2C60236820465B68BDE87040184718
:1009B00058100020F7B51D46036804460E461B6814
:1009C000174698472046FFF7DDFF9DF82030314657
:1009D0003A4683F0010304F13C0000932B4606F0F5
:1009E00041FF2368064620465B689847A81B18BF4E
:1009F000012003B0F0BDC36810B504460BB19B687D
:100A00009847204610BD000008B50448FFF74CFD8C
:100A10004FF0FF31BDE8084001F058BA3010002017
:100A200008B50348FFF740FDBDE8084001F058BA9B
:100A30003010002038B5044648B100F15805AC42EA
:100A400005D02C3D05F11800FFF7D5FFF7E720464C
:100A500038BD38B5002504462822294640F8045BF5
:100A600009F04CF81022294604F1180009F046F864
:100A7000204638BD10B50A4C2046FFF7EAFF04F1C6
:100A80002C00FFF7E6FF00232046064AA36506492F
:100A9000E36584F86030BDE8104001F0D9B800BFCC
:100AA0005C100020F8010020350A000803681B696B
:100AB000184703689B69184703689B6A18474FF0FB
:100AC000FF30704711207047704700F06BB8A0F1FD
:100AD000B400FFF7FABF00F068B8A0F1B400FFF768
:100AE000FABF4FF0FF31CC3001F0F0B9A0F1B40003
:100AF000FFF7F7BFCC3001F0F3B9A0F1B400FFF776
:100B0000F9BF000010B5044600F0AAF8002104F176
:100B1000B40000F00FFE084B04F1CC0003F1080212
:100B2000226003F128028433C4F8B420C4F8B8303A
:100B300001F0C4F9204610BD44ED0008704730B400
:100B400070B1D2E9004303F0010204B942B15B1075
:100B5000C5180AB1C3581C592846234630BC18474B
:100B600030BC704770B501F10906044600EB06166B
:100B7000F36893B10D014319D3F89C302BB94FF4AE
:100B800004720649064800F03DFE2C443046D4F875
:100B90009C30BDE870401B68184770BDD0ED000860
:100BA000EFED00084C3006F0B1B910B50C464C30F2
:100BB00006F0BEF9204610BDF7B500230D4602A988
:100BC0000246041DCDE9003311E9030084E8030067
:100BD0002049D16048F2070111611F4993615561B5
:100BE000D46111621D49C1F88430BFF34F8FD1F831
:100BF000803043F6E077C3F3C905C3F34E33AE0745
:100C00005B0103EA070E3446284601384EEA040C1D
:100C100004F14044B0F1FF3FC1F874C2F5D1203B6C
:100C200013F1200FEDD1BFF34F8FBFF36F8FBFF3E1
:100C30004F8FBFF36F8F0023C1F85032BFF34F8F38
:100C4000BFF36F8FBFF36F8FBFF34F8F104603B0AB
:100C5000F0BD00BF01A090E83F0B000800ED00E0F0
:100C60002DE9F04F04469B462D4B002585B0894663
:100C700040F8043B214604F14C069246FFF79CFFE6
:100C8000294684F82850102284F8295004F12C00B9
:100C900008F034FF04F190082946102204F13C00CA
:100CA00004F1A00708F02AFF29464422304608F044
:100CB00025FF29461022404608F020FF2946102231
:100CC000384608F01BFF10222946C4F8B0B0684629
:100CD00008F014FF69464046FFF7A0FD6846FFF79D
:100CE00091FB10222946684608F008FF69463846FD
:100CF000FFF794FD6846FFF785FB524649463046AC
:100D000005F04AFFD4F8B010304606F06DF83046D2
:100D10002246044906F06CF8204605B0BDE8F08F85
:100D2000FCED0008650B00082DE9FF41164603683D
:100D30000446884606F109051B68984704F14C07EC
:100D400000F0DAFDD8F80C2004EB0515EB68A2B131
:100D50000BB900F0ADF941462846FFF75FFD0122CF
:100D60003146384606F050F800F0F2FD2368204680
:100D70005B68984704B0BDE8F0810BB100F0B2F9B0
:100D800010220021684608F0B9FE69462846FFF7A0
:100D900045FD6846FFF736FB0022E1E77FB51A4BB9
:100DA0000446102200210360684608F0A7FE0022D6
:100DB00069462046FFF7B8FF6846FFF723FB10227D
:100DC0000021684608F09AFE012269462046FFF796
:100DD000ABFF6846FFF716FB14F1900608D004F14C
:100DE000B005AE4204D0103D2846FFF70BFBF8E7F4
:100DF00004F13C00FFF7FFFD04F12C00FFF7FBFDC1
:100E0000204604B070BD00BFFCED000810B50446DC
:100E1000FFF7C4FF204600F04BFF204610BD2DE930
:100E2000F048D0E90245D0E908BC06461BEB0402B5
:100E30004CEB050300F066F8736B2BB106F128004C
:100E40001B68BDE8F0481847BDE8F088D0B50446F7
:100E500016461F4600F050FD204600F05DF8A069E0
:100E6000C4E9086700F025FB8219204641EB07031F
:100E700000F048F8BDE8D04000F06ABD30B5044647
:100E800085B000F039FD204600F046F8636B23B1D1
:100E900094F838300BB100F025F904F12805102240
:100EA0000021684608F02AFE2846FFF7ABFA3DB15C
:100EB000039B1BB15B68694628469847039B6363A5
:100EC0006846FFF79FFA00F043FD05B030BD0368A8
:100ED0009B681847094B002210B5036000230446A5
:100EE000C0E902230023C0E9043300F0F1FA044909
:100EF000A06100F06FFA204610BD00BF28EE000888
:100F0000CF0E000807B500F108010090806900F0DD
:100F10008BFA03B05DF804FB00F10801806900F072
:100F2000ADBA0000034B10B504460360FFF7F4FFB1
:100F3000204610BD28EE00080368012200211B692D
:100F40001847036800221B6911461847014800F042
:100F500009B800BFC0100020014803F0E7BB00BF84
:100F6000044A002008B5006802F00AFA18B1BDE88A
:100F7000084000F059BC08BD08B5034809F000FB63
:100F8000024B186008BD00BF34EE0008E4100020DA
:100F900038B504460D4603685AB18268204613608E
:100FA000012106F06DF929462046BDE8384006F0DB
:100FB00063B9C2681B04F1E770B50E4604461546D6
:100FC00006F03AF9013606D02A4620460021BDE84F
:100FD0007040FFF7DDBF70BD0022FFF7EDBF0000DE
:100FE00010B5044601300DD110BDA34209D12046F1
:100FF000896806F06BFD20460021BDE8104006F030
:10100000FFBD0C31B1F900305A1CEED10248BDE8E9
:10101000104000F0D5BC00BFACEE0008884208B517
:1010200008D0431C06D0013106D0044800F0C8FCAB
:101030004FF0FF31084608BD0146FBE77BEE000894
:10104000B1F900305A1C01D118467047834201D1D2
:10105000486870470C31F3E7421C10B5044607D0CE
:10106000FFF7EEFF431C044602D1024800F0A8FC43
:10107000204610BD8CEE0008B1F900305A1C01D199
:1010800018467047834201D1886870470C31F3E7F6
:10109000421C10B5044607D0FFF7EEFF431C044680
:1010A00002D1024800F08CFC204610BD5DEE000825
:1010B00008B500F021FC094B1A884FF6FF739A42DD
:1010C00004D100F045FC064800F07AFC01210348F9
:1010D00000F05CFCBDE8084000F03ABCE8100020DD
:1010E000BDEE000808B500F007FC084B1B8823B9CB
:1010F00000F02EFC064800F063FC0121034800F0DC
:1011000052FCBDE8084000F023BC00BFE8100020FE
:10111000EAEE000808B500F0EFFB064B1B882BB980
:1011200007F048F8BDE8084000F012BC07F032F8BC
:10113000F8E700BFE81000202DE9F84FD0E90034AF
:1011400005465B6898476B681B6A83423CD0236AFC
:101150004FF00009E268C31A2062A66828481340CD
:101160008642984628D0A3FB0023B6F5004FD4E969
:101170000AAB1046194629D147F6FF764FEAD23816
:1011800000274FEAD139304048EA414839401AEB4C
:1011900000024BEB01039F4208BF964202D3C4E911
:1011A0000A2309E018F1010849F10009B2F5004AE3
:1011B00043F1FF3BC4E90AABD4E90C0110EB080290
:1011C00041EB0903C4E90C23BDE8F88F0027324640
:1011D0003B460DF0E1FB804612EB0A00894643EBEB
:1011E0000B01B94208BFB04202D2C4E90A01E3E7E9
:1011F00018F1010849F10009821B61EB0703CEE7F2
:1012000040420F00824206D98A420BD9884294BFDD
:10121000002001207047884206D98A428CBF0020F6
:101220000120704701207047002070472DE9F14FE1
:101230008046D0F80490FFF77FFFD8F80450D8F824
:1012400000A0696800294BD0D5E90C23D1E90067DB
:10125000BB4208BFB24205D3DAF8143001B0BDE892
:10126000F04F1847B61A2C6967EB0307D5E9062338
:10127000BB4208BFB24206D3AB68224A934219D19F
:10128000B44228BF34462A6ADAF810301444EA68B7
:10129000144020469847D8F800305B6898472246AB
:1012A0000146D9F82000FFF7ADFF38B3D8F8003079
:1012B0005B69D3E7B3F5004F0BD1F903114A002363
:1012C000F00341EA56410DF067FB844228BF044613
:1012D000D9E7A3FB06010B4A03FB07110023F2E742
:1012E000D9F81030D9F82000D9F80C201844DAF8D1
:1012F0001030104001B0BDE8F04F184701B0BDE814
:10130000F08F00BF40420F00436893F838302DE95A
:10131000F0470446002B54D103681B6898472368A4
:101320009B699847D0F800900546B9F1000F06D1A7
:10133000DFF89C9029222449244800F063FA6D6864
:101340002B1F1C2B05D920252F221F491F4800F0D9
:1013500059FA2B1F4FF0070819F1FF301C4E08FAFD
:1013600003F84FF000034A4643F1FF31C6FB080182
:101370000DF012FBD4F804A000230F460646CAE97C
:10138000003323685B689847CAF820000120616831
:101390000022002300FA05F5C1F8089081F8380012
:1013A0002046013DC1E90667C1E90358C1E90A23A6
:1013B000C1E90C23FFF7C0FE2046BDE8F047FFF768
:1013C00035BFBDE8F08700BF10EF000831EF00081F
:1013D00040420F0038B505460C46FFF795FF6B6895
:1013E0001C6038BD036870B5DB68044698476368C5
:1013F0005B68A3B12046FFF79FFE65686E68D5E97C
:101400000C01D6E90023994208BF904207D3F36844
:101410006B602B68002BEAD0B0689847E7E720465E
:10142000BDE87040FFF702BF2DE9F84305460C46C2
:1014300016461F46DDF8208000F05EFA2846FFF7CA
:101440007BFE69680022C4F808804B68C4E9006725
:101450004BB9E36082B94C602846FFF7E7FEBDE870
:10146000F84300F075BAD3E900894F4508BF4645F7
:10147000EFD31A46DB68EBE7D460EDE738B50546F5
:101480000C4600F039FA6A685368A34209D1DB6858
:1014900028465360FFF7CAFEBDE8384000F058BA4E
:1014A0001346002BF8D0DA68A242F9D1E268DA607C
:1014B000F2E710B50446FFF727FF2046FFF73CFE92
:1014C0006368D3E90C0110BD08B5FFF7F2FF08BD52
:1014D0000048704734EF0008024B1B680BB102480C
:1014E000184770470002002034EF0008007B704767
:1014F00038B50E4B0D460273044603600023C0E965
:1015000001310B48FEF7D0FF4FF0FF3100F0DEFC59
:1015100055B1084B1A681C6062600548FEF7C4FFAD
:1015200000F0DEFC204638BD6560F6E760EF00089D
:101530003411002030110020124B10B50360044616
:101540001148FEF7B1FF4FF0FF3100F0BFFCA36878
:101550002BB10E4A1368A3420ED1636813600A4888
:10156000FEF7A2FF00F0BCFC237B13B9201F00F0A4
:10157000A5FB204610BD13465A68A242FBD1626803
:101580005A60ECE760EF00083411002030110020B1
:1015900010B50446FFF7D0FF204600F089FB204637
:1015A00010BD000070B506460F480D46FEF77CFFE3
:1015B0004FF0FF3100F08AFC0C4B1C685CB1A06856
:1015C00080B12A46314609F049F858B9A06808F0B8
:1015D000D7FFA84206D10448FEF766FF00F080FC62
:1015E000204670BD6468E9E7341100203011002006
:1015F00000207047002070470368012200211B690A
:1016000070B504469847051E0DDB236802220021B1
:1016100020461B699847064623682946354600221E
:101620001B6920469847284670BD00F01BBB00236D
:1016300010B5C0E900330A7804462F2A0DD14A7844
:101640005AB1481C1946206023681A782F2A06D1FF
:1016500001332360FFF7A6FF6060204610BD002A1B
:10166000F8D0013301312360EEE70068704740682D
:1016700008B520B1FFF73AFF431E5842584108BD54
:1016800010B50446FFF7F3FF10B1606800B10438ED
:1016900010BD406808B520B1FFF728FFB0FA80F010
:1016A000400908BD10B50446FFF7F3FF10B16068AC
:1016B00000B1043810BD4068003018BF01207047E9
:1016C0007047704700207047F8B50E46036804461F
:1016D0008F183546DB6C9847BD42236806D05B6C9B
:1016E000204615F8011B98470130F5D123682046A4
:1016F0001B6D9847A81BF8BDF8B50E460368044655
:101700008F183546DB6C9847BD42236807D09B6C29
:1017100020469847431C02D005F8010BF4E72368E4
:1017200020461B6D9847A81BF8BD0020704700207D
:10173000704770470F4B002210B5044640F8043B39
:10174000FFF7D6FE0C4B0D49204623605C336360E7
:1017500000236361FFF769FF606118B100F07FFA51
:10176000204610BD06F0AEFD0168054800F028F9DE
:10177000F6E700BF70EF00083CF0000810F000082A
:1017800013F000080A4B03F10802643310B5044655
:1017900002604360406906F003FE064B204623606A
:1017A0004C3340F8043FFFF7C7FE204610BD00BF92
:1017B00034F00008BCEF00080EB4036877B507AD3D
:1017C0000446DB6C55F8046B98476069019506F098
:1017D000C7FE019A314660690BF002FC236805469A
:1017E00020461B6D9847284603B0BDE8704003B003
:1017F000704707F075BD08F0E1B907F04BB806F087
:101800002DBD000070B504460D46164600F074F874
:101810002A4621463346034800F05AF8BDE8704096
:1018200000F002B8A0F0000810B588B000F064F82D
:10183000102101A8FFF7D0FB0424039B9620019AF6
:101840001A6000F010FB019B049A96201B041360A1
:1018500000F009FB013CF0D10424039B4FF4C87055
:10186000019A1A6000F0FFFA019B049A4FF4C870C5
:101870001B04136000F0F7FA013CEED1DCE7000036
:1018800070B50D46A0B0044600F036F82B46802116
:10189000224668460BF02AFC051E11DD0A4B1B6828
:1018A00023B939223821094805F076F90024074E7A
:1018B0001DF804100134304605F03AFBA542F7D17B
:1018C00000F046F820B070BD24190020D85B00203D
:1018D0000FB407B504A951F8040B0191FFF7D0FF2D
:1018E00003B05DF804EB04B07047EFF31080C04321
:1018F00000F001007047000038B5FFF7F6FF05461D
:1019000072B60E4C236823B980F001030C4ADBB297
:1019100013702368013304D143220A490A48FFF7B0
:1019200071FF23682BB125B1472206490748FFF70D
:1019300069FF23680133236038BD00BF60110020B8
:101940005C110020D1F00008F5F000081BF1000840
:1019500010B50A4C236883B1FFF7C7FF20B15822A6
:1019600007490848FFF74EFF2368013B23602368BF
:101970001BB9054B1B7803B962B610BD601100207E
:10198000D1F000081BF100085C11002038B50546B5
:101990000C46FFF7B1FF29880C44A4B22C80FFF756
:1019A000D7FF204638BD70B505460E46FFF7A4FFA9
:1019B0002C88A41BA4B22C80FFF7CAFF204670BD60
:1019C0000FB4094B13B51A784AB9012405A9049834
:1019D0001C700191FFF754FF204600F03BF902B064
:1019E000BDE8104004B070476411002008B5084BF2
:1019F0001B685BB938210748392205F0CDF84FF450
:101A000016510448BDE8084005F0EEB908BD00BF16
:101A100024190020D85B0020022810B501DC00202A
:101A200010BDC31E0B4A002152F8230042F82310B8
:101A300030B906F047FC092303604FF0FF30EFE7B1
:101A400003685B699847041EE9DA644206F03AFCD1
:101A50000460F2E7681100200228F8B50D4614462C
:101A60000EDC134B1B680BB9FFF7C0FF2F19114E8B
:101A7000BD4210D015F8011B304605F059FAF7E7C2
:101A800003380D4B53F8200038B906F01BFC4FF01B
:101A9000FF34092303602046F8BD0368DB689847DC
:101AA000041EF8DA06F00EFC63420360F3E700BFA1
:101AB00024190020D85B002068110020022810B5EE
:101AC0000C460BDC104B1B680BB9FFF78FFF0F4860
:101AD00005F01CFA20700124204610BD03380C4B81
:101AE00053F8200030B906F0EDFB09234FF0FF3426
:101AF0000360F1E703689B689847041EECDA06F080
:101B0000E1FB63420360E7E724190020D85B002073
:101B100068110020022810B516DD03380B4B53F86E
:101B200020402CB906F0CEFB09230360204610BDEF
:101B300023682046DB699847041EF7DA644206F002
:101B4000C1FB04600024F1E70124EFE768110020E5
:101B5000022810B507DC06F0B5FB1D2303604FF02B
:101B6000FF34204610BD0338084B53F8200018B945
:101B700006F0A8FB0923F1E703681B699847041ED8
:101B8000EFDA644206F09EFB0460E8E7681100208B
:101B9000022838B50D4604DC4FF400534B6000209A
:101BA0000AE003380D4B53F8204034B906F08AFBA5
:101BB000092303604FF0FF3038BD23682046DB69FE
:101BC00098470028204614BF4FF400534FF40043B9
:101BD0006B6023689B6A98472861E0E768110020E2
:101BE00008B5012000F036F80C4B1A6810B5104407
:101BF000EFF30881884206D30C22094B1A604FF09C
:101C0000FF32104610BD07490C6824B10649096827
:101C100021448842F0D21860F3E700BF040200209C
:101C2000006000209012002094120020074C05460E
:101C300008B52368986806F093FC2368D86806F016
:101C40008FFC0DB1FFF7F0FDFEE700BFB4020020EE
:101C50000120704708B5FFF7E9FF01207047002118
:101C600008F002BA1FB504220C463A2301900DEB8E
:101C700002010DF109008DF8083007F041FE214600
:101C800002A806F0AFFD044638B101980368DB698D
:101C9000984710B12046FFF7E2FF204604B010BD80
:101CA00008B500F0E1F908BD08B500F0E5F908BD98
:101CB00007F00EBB0048704730F1000810B504462D
:101CC0000C48FEF7F1FB4FF0FF3100F0FFF8002366
:101CD000094A194652F82300A04208BF42F82310CF
:101CE0000133402BF6D10348FEF7DEFBBDE8104080
:101CF00000F0F6B868120020681100202DE9FF47B7
:101D000089464449064608F0BFFA044628B9FFF759
:101D10006DFE204604B0BDE8F0873F49304608F02C
:101D2000B3FA18B9FFF762FE0124F2E73B493046E7
:101D300008F0AAFA18B9FFF759FE0224E9E7384D6E
:101D400000243848A846FEF7AFFB4FF0FF3100F003
:101D5000BDF855F82470002F42D00134402CF8D142
:101D600006F0B0FA182303602E48FEF79DFB00F042
:101D7000B7F80EE0314602A8FFF759FC02A8FFF7BA
:101D80009AFC064640B906F09DFA1323036045F815
:101D900024604FF0FF34BCE702A8FFF77AFC074647
:101DA00002A81FB1FFF77EFC01902DE0FFF768FC51
:101DB00006460028E7D0036802A8D3F808A0FFF77A
:101DC00054FC29F40043024601A93046D047064698
:101DD000D0B1764206F076FA066045F82470D8E76E
:101DE0004FF0FF330F4845F82430FEF75DFB00F05D
:101DF00077F8337801973A2BBCD10422711C02A8E2
:101E000007F07EFD029B0193019B48F824300334C8
:101E10007FE700BF40F1000847F1000838F10008F3
:101E20006811002068120020F8B505464FF47A7456
:101E3000FFF74EFB0746FFF747FB064695FBF4F41A
:101E4000002C09DDFFF751FD30B1FFF731F92046D5
:101E500002F050F8FFF746F93846FFF735FB801BD4
:101E6000A842F9D3F8BD4FF47A735843FFF7DCBFAB
:101E70007FB5061D05460C461C220021304607F0A2
:101E80003DFE0B4B68460296002C08BF1C461C23E7
:101E900003930B230094019301F0A6F9286020B965
:101EA000312204490448FFF7ADFC04B070BD00BF07
:101EB0004FF1000868F1000882F10008002110B518
:101EC00004460162FFF7D4FF204610BD10B504465A
:101ED000006801F0B5F910B9236A0133236210BD1F
:101EE000036A013B0362006801F0C8B910B50446FB
:101EF000006801F0DFF9204610BD000038B5154834
:101F00000B25154B1C2445600360144BC460836093
:101F100001F06AF9124B18601248134BC460C0E913
:101F20000035124B836001F05FF9114B18601148C6
:101F3000114BC460C0E90035104B836001F054F9C7
:101F40000F4B186007F00AF90021BDE83840084639
:101F500000F062B88C5B0020AEF10008545B0020FA
:101F6000505B0020405B0020BEF10008705B002049
:101F7000184B0020C05B0020CBF10008245B002040
:101F8000205B00200A4A0B48C2F1005303F50023EE
:101F9000B3F5806F194628BF4FF480615B1A01606A
:101FA00005499818086005490B60054B1A60704791
:101FB00004600020981200209C1200209012002043
:101FC000941200207047000008B50D4A00210D4B07
:101FD0000D4813614FF4805353614823D3600B4B7A
:101FE0009360182393610A4B136001F09DFE10B9B2
:101FF0000848FFF7E5FCBDE8084000F0DDBA00BF87
:102000009C5B0020204B0020FD1E0008D04A0020D1
:1020100086F1000892F1000808B5FFF7D3FFBDE88C
:102020000840FEF77DBA000008B5FFF7ABFF0C4B88
:102030000C4998684FF00053C21802F160421268D0
:1020400043F8042B8B42F7D1054B4FF000529A60B6
:1020500005F0D4FC00F066FABDE80840FFF7B4BF15
:1020600000ED00E0C8010020024B4FF0FF3118687E
:1020700001F0E6B8184B0020014B186801F0FEB8DB
:10208000184B002008B500F055F8FCE705460C4653
:1020900008B501F065FE6B1E0246042B24D8DFE86C
:1020A00003F0030D13191E00204601F041FE2246E5
:1020B000034601210F48FFF783FCFEE72346022178
:1020C0000D48FFF77DFCF8E7234603210B48FFF797
:1020D00077FCF2E704210A48FFF772FCEDE70521DF
:1020E0000848FFF76DFCE8E729460748FFF768FC5A
:1020F000E3E700BFD5F1000826F200087CF20008F3
:10210000E1F200083CF300089CF3000808B501F078
:1021100027FEBDE8084001F0E5BE08B5FFF7ECFB7F
:10212000FEF7C6FFFEF7F6FFFEF7DCFFBDE808404E
:10213000FFF70EBC024C08B523689847FCE700BFC8
:1021400008020020EFF30980816911F8021CB9BB75
:1021500001B590E80F10E047BDE800508CE803009F
:10216000264B93E80600914208BF704741B91EF024
:10217000100F10D12249086820F0010008600AE021
:102180002CE9F00F1EF0100F08BF2CED108AC1F8DB
:1021900038C081F822E001F09BFB184B93E8060061
:1021A0001A6092F82210906B61F0FF0E1EF0100F73
:1021B00008BFB0EC108AB0E8F00F80F309887047D0
:1021C00010B5104A1368994206D852F821400FC83A
:1021D000A047EFF30984206010BD10B501F052F95B
:1021E000BDE81040EFF3098CBAE710B501F010F923
:1021F000BDE81040EFF3098CB2E700002002002098
:1022000034EF00E084F4000808B5014610B1132053
:1022100001F0F6FC002008BD10B5044600F030F8CF
:10222000EFF305832BB9EFF3108313B9EFF31183A9
:102230003BB100206FF0050100F016F86FF00500CB
:1022400010BD2046DFF804C000DFF9E709220008CE
:1022500070477047704770477047704770477047C6
:1022600070477047704770477047704770477047B6
:1022700070477047704770477047704770477047A6
:102280007047704770477047704770477047704796
:102290007047704770477047704770477047704786
:1022A0007047704770477047704770477047704776
:1022B0007047704770477047704770477047704766
:1022C0007047704770477047634870B5017A04469D
:1022D000012903D1FFF7C4FF002006E031B14FF020
:1022E000FF30FFF7BBFF4FF0FF3070BD5B4D9C220E
:1022F000083007F003FC6B6D472B02D86FF00A0023
:10230000EFE7EA68002AEAD02B8A002BE7D0A4F88E
:102310005430AB68E2652364D5E90B61304600F0C8
:1023200081F908B1C4F88060D5E90561304600F054
:1023300079F9002800F084806667D5E907613046A6
:1023400000F070F900287FD0A667D5E90961304612
:1023500000F068F900287BD0E6676E6B46B1316803
:102360003046D6E9022300F0D6F908B1C4F88460FB
:10237000AE6B46B131683046D6E9022300F0CBF9A6
:1023800008B1C4F88860EE6B46B131683046D6E9D2
:10239000022300F0C0F908B1C4F88C602E6C46B17D
:1023A00031683046D6E9022300F0B5F908B1C4F827
:1023B00090606E6C46B131683046D6E9022300F079
:1023C000AAF908B1C4F89460AE6C46B131683046E1
:1023D000D6E9022300F09FF908B1C4F89860EE6CCA
:1023E00046B131683046D6E9022300F094F908B1CD
:1023F000C4F89C602D6D45B129682846D5E90223B3
:1024000000F089F908B1C4F8A050154AFF2382F8FA
:10241000223092F82230D16863F0FF03C1F3022129
:10242000DB43B3FA83F3C3F120038B4298BF4B1C09
:10243000FE2101FA03F3DBB2D3770123237249E7CC
:10244000D4F88030636778E7D4F88030A3677CE7FE
:10245000D4F88030E36780E70C0200201CF4000809
:1024600000ED00E010B5034C207AFFF7FAFE207A69
:1024700010BD00BF0C02002038B5244C237A012B7C
:1024800006D06FF00600FFF7E9FE4FF0FF3038BDD1
:10249000A36A1F4D4BB9AA6D19461E4801F0A8FA50
:1024A000A06210B94FF0FF30EDE76B6E4BB1A36C3B
:1024B0003BB9EA6D1946184801F09AFAA064002861
:1024C000F0D01649686801F0CDFC0028DDD101F09C
:1024D00005FD206101F0E6FC0028D6D1104801F08E
:1024E000F8F80028DED001F015FA2B6813F0010F80
:1024F0004FF0020306D083F314882372FFF7B3FE74
:102500000020C4E7032282F31488F6E70C020020BF
:102510001CF4000885200008193E0008EB21000883
:102520002802002008B5FFF79AFEEFF305832BB9C8
:10253000EFF3108313B9EFF3118333B16FF005009C
:10254000FFF78CFE6FF0050008BDDFF828C0EFF341
:10255000148313F0020F0AD113F0040FEFF3088372
:102560000CBF203B683B23F0070383F3098800DF9F
:10257000EAE700BFC922000808B5EFF305832BB9CD
:10258000EFF3108313B9EFF3118333B14FF0FF3042
:10259000FFF767FE4FF0FF3008BDEFF31483DB0752
:1025A00003D4BDE80840FFF75DBFDFF808C000DFD7
:1025B000F2E700BF6524000808B5FFF753FEEFF30C
:1025C00005832BB9EFF3108313B9EFF3118333B104
:1025D0006FF00500FFF742FE6FF0050008BDFFF742
:1025E000CBFF022805D00D4B1B6813B15B6803B10C
:1025F0009847DFF82CC0EFF3148313F0020F0AD1D1
:1026000013F0040FEFF308830CBF203B683B23F06B
:10261000070383F3098800DFE0E700BFD05B0020F9
:102620007924000838B50C46034630B140EA01026F
:1026300012F0070201D1172906D8184600222146B8
:10264000FFF706FE002038BDA1F10804102519602F
:102650004560251885602250C2600122FFF7F8FD11
:102660000120F0E7F8B518B111B132F0030305D03D
:1026700000240023FFF7EDFD2046F8BD0F3100F1E7
:10268000080321F007011E68D3F804C0F41A2CF0E7
:102690000305641BA14207D934683346002CF2D1EC
:1026A0002346FFF7D6FDE7E7446842EA01070C44FA
:1026B0004460BCF1000F03D15F6003F10804EFE751
:1026C0005C195E5167601C600834E9E738B500B1F9
:1026D00021B90022FFF7BEFD002038BDA1F1080599
:1026E00000F108030022AB420CD15C6824F0030522
:1026F0004468641B44605AB95A600122FFF7AAFD7E
:102700000120EAE71C681A46002CE2D02346EAE7DB
:102710001B681360F1E72DE9F0410C4617461D4692
:102720000646F8B1B9B1FAB103B34FF0000C02FBA1
:1027300001F83160C0E901C203EB080CF36073617A
:10274000C0F810C0FFF787FD2B46013C06D1A8EB6F
:102750000707EC5101242046BDE8F081DA191A6020
:102760001346F2E70446F6E71446F4E71C46F2E7A0
:1027700038B5044628B925460146FFF76DFD2846C1
:1027800038BD031D026853E8001F8A4202D8BFF318
:102790002F8F04E0481C43E8000505B1F3E72368E8
:1027A0008B4211D904F1140353E8005F15B9BFF34C
:1027B0002F8F04E02A6843E8002101B1F4E729469D
:1027C0002046FFF749FDDAE70025F8E738B528B1DC
:1027D000C3688B4202D803698B4207D86FF00304A9
:1027E0006FF00302FFF739FD204638BD031D53E8A3
:1027F000002F12B9BFF32F8F04E0541E43E80045A9
:1028000005B1F4E79AB100F114031A680A60BFF346
:102810005F8F53E8002F0C689442F6D143E800150F
:1028200005B1F2E700242246FFF717FDDCE76FF061
:102830000204F8E7036B30B5E3B1CD780024DA7811
:10284000AA420FD31A46C1E901248AB19160A4B10A
:102850006160283050E8003F5A1C40E8002101B177
:10286000F8E730BD5A681C46002AECD01346E6E76C
:10287000C162ECE7C1E90133C1620163E9E7D1E973
:10288000013223B19A608A681AB153607047C262FC
:10289000F9E70363704700002DE9F74F8B46804648
:1028A00000B149B96FF003010020FFF7FFFC0024DD
:1028B000204603B0BDE8F08FCF1CB0FA80F327F0BC
:1028C00003070C37B7FA87F10B441F2BEADD07FB30
:1028D00000F9F2B1136894680193D2E904633CB142
:1028E000A10702D1D268332A05D86FF00801DBE7CF
:1028F000D268002AF9D13EB116F0030501D19945FD
:102900005CD96FF00901CFE7002BFAD11CB11D464D
:1029100017E0164601922B4BD3F8A00040B1FFF709
:1029200027FF044658B96FF00401FFF7BFFCBFE76B
:1029300001223421D3F88000FFF794FEF1E701254E
:1029400016BBDFF880A000224946DAF87C00FFF7CA
:1029500089FE064690B96FF00401FFF7A7FC002D31
:10296000A5D0DAF8A05021461DB12846FFF72EFF6A
:102970009DE7DAF88000FFF7A9FE98E745F0020529
:102980004A46002107F0BAF84FF484733A46A5701E
:102990004146238004F10C00019B63600023A36087
:1029A000C4E909B3C4E90B333346FFF7B4FE054B62
:1029B000054A20461A67FFF77BFC79E7002CE3D134
:1029C000A9E700BF0C020020BD2A00082DE9F04154
:1029D0000E4690461D46044618B10378082B00D1D8
:1029E00041B920466FF00301FFF760FC6FF0030070
:1029F000BDE8F081437833B96FF00201FFF756FC70
:102A00006FF00200F4E78368FBB15B78832B1CD185
:102A1000FFF753FC204600F05CFE05460122002132
:102A200000F0B6FF284600F0D5FE0546626A314642
:102A3000806806F065FFEB680BB183F80080A96839
:102A40002046FFF73FFC0020D2E704F10C00FFF71F
:102A50008FFE0746A0B1626A31460C30002506F0B1
:102A60004FFF40F20713394620463B80BD7087F880
:102A70000380FFF7DFFE31462046FFF71EFCE2E74A
:102A8000A5B12A4631462046FFF714FC0A4B2046E2
:102A9000596900F00BFE2946932001F0B1F8EFF3DD
:102AA00009836FF00100C3E90268A1E731462046BF
:102AB000FFF704FCA4E700BF0C020020F8B5437840
:102AC0000446002B76D08678002E3CD0C5686B7803
:102AD000002B6FD0002605F10C0701462846FFF7B2
:102AE000CEFE66703846FFF771FEAB68002B61D0F2
:102AF0005B78932B5ED13846FFF73AFE04460028F8
:102B000058D0284600F0E5FD07463246314600F031
:102B10003FFF384600F05EFE6A6A0746816804F1AE
:102B20000C0006F0EDFE40F20713A670214623804C
:102B30002846FB68E370FFF77DFEB9682846BDE8CC
:102B4000F840FFF7BABB85686B789BB3AB68416808
:102B500028463BB35B78832B24D1FFF7AEFB284696
:102B600000F0B7FD07463246314600F011FF384607
:102B700000F030FE06466A6A04F10C01806806F037
:102B8000BFFEF3680BB1E2781A70B1682846FFF710
:102B900099FB0023214605F10C006370BDE8F84065
:102BA000FFF714BEFFF789FB21462846BDE8F84031
:102BB000FFF740BEF8BD10B500F1280353E8002F21
:102BC00012B9BFF32F8F04E0511E43E8001404B183
:102BD000F4E70AB9002010BDC06A01230028F9D02B
:102BE000821CD2E84F1FC2E8443F04B1F9E711F05C
:102BF000FF0FF0D08068F1E72DE9F0410D46174650
:102C00009846044618B10378082B00D141B92046F4
:102C10006FF00301FFF74AFB6FF00300BDE8F0819E
:102C2000437833B96FF00201FFF740FB6FF0020009
:102C3000F4E7FFF7C0FF0646E0B101462046FFF784
:102C40001EFE626A06F10C01284606F059FE0FB11D
:102C5000F3783B70294604F10C0700252046FFF766
:102C600031FB314675703846FFF7B0FDA368F3B904
:102C70000020D3E7B8F1000F14D042462946204681
:102C8000FFF71EFB1F4B2046596900F00FFD414620
:102C9000832000F0B5FFEFF309836FF00100C3E973
:102CA0000257BBE729462046FFF70DFBBEE75B78DE
:102CB000932BDDD13846FFF75BFD06460028D7D0C1
:102CC000204600F006FD07460122294600F060FE7E
:102CD000384600F07FFD626A0746816806F10C0005
:102CE00006F00EFE40F20713B570314633802046E1
:102CF000FB68F370FFF79EFD2046B968FFF7DDFA29
:102D000028468BE70C02002070B506460D46144697
:102D1000FFF7CDFAEFF305832BB9EFF3108313B967
:102D2000EFF3118333B100206FF00501FFF7BEFA16
:102D3000002070BD304629462246DFF828C0EFF358
:102D4000148313F0020F0AD113F0040FEFF308837A
:102D50000CBF203B683B23F0070383F3098800DFA7
:102D6000E7E700BF992800082DE9F04104460F4627
:102D700090461D46FFF79DFAEFF305832BB9EFF35D
:102D8000108313B9EFF31183CBB324B12378082B4D
:102D900001D107B145B120466FF00301FFF786FA74
:102DA0006FF00300BDE8F08163783BB96FF002017A
:102DB0002046FFF77BFA6FF00200F3E704F10C0006
:102DC000FFF7D6FC0646A8B1626A39460C3006F019
:102DD00097FD40F207133046B570338086F80380C4
:102DE000C6E9017400F092FB20463946FFF764FA09
:102DF0002846D7E739462046FFF760FADBE720464A
:102E0000394642462B46DFF808C000DFCAE700BF5C
:102E1000CD290008F8B504460D4617461E46FFF7B3
:102E20004EFAEFF305832BB9EFF3108313B9EFF3E9
:102E30001183A3B324B12378082B01D105B13EB18E
:102E400020466FF00301FFF731FA6FF00300F8BD81
:102E500063783BB96FF002012046FFF727FA6FF065
:102E60000200F4E72046FFF7A6FE064690B100F107
:102E70000C01626A284606F043FD0FB1F3783B70FF
:102E800029462046FFF71EFA3046F46000F03EFB6C
:102E90000020DCE729462046FFF715FADFE7204649
:102EA00029463A463346DFF808C000DFCFE700BFC7
:102EB000F92B000870B5002839D08468D0E9005695
:102EC0006CB114F0030302D1C2681B2A1FD800247E
:102ED0006FF008010020FFF7D7F9204670BDC368E6
:102EE000002BF4D1134BD3F8940030B901221C21EC
:102EF000D3F88000FFF7B6FB01E0FFF739FC04468A
:102F000020B96FF00401FFF7BFF9E6E701234FF4A2
:102F10008272A3700023E6702280204665602376CB
:102F2000C4E90233C4E90433FFF7B0F9D5E7054635
:102F30000646D7E70C020020304B70B55D690446A9
:102F40000E4635B96FF00701FFF79EF94FF0FF30DD
:102F500070BD10B10378042B07D020466FF0030139
:102F6000FFF792F96FF00300F2E7437833B96FF09F
:102F70000201FFF789F96FF00200E9E7017E69B904
:102F8000EB6AC560C0E9041303B118610121204652
:102F9000EC622176FFF77EF90020D9E7C378DA07E3
:102FA0000BD5C268AA4208D1FF2902D16FF00F01E8
:102FB000DFE70131C9B20176ECE7DEB19B070AD544
:102FC000E06895F9203090F920209A4203DA80F8E1
:102FD000203000F099FB31462046FFF759F9294689
:102FE000204600F063FB3146532000F009FE6FF0ED
:102FF0000100ADE72046FFF74EF9BCE70C020020C8
:1030000038B5334B04465D6935B96FF00701FFF7FA
:103010003BF94FF0FF3038BD10B10378042B07D0D7
:1030200020466FF00301FFF72FF96FF00300F2E77E
:10303000437833B96FF00201FFF726F96FF0020011
:10304000E9E7C368AB4202D06FF00D01F4E7017EFF
:1030500011B96FF00E01EFE70139C9B20176FFF740
:103060001CF9237E3BBB63690BB122691A6122699B
:103070001AB35361E3789B0705D595F92120EB6AD4
:10308000EBB985F82020A36893B1204600F021FB1E
:1030900000220546114600F07BFCEB6A0121E56049
:1030A0006361002320462361EC622176FFF7F2F88A
:1030B000002000F03FFC0020ADE7EB62DAE7996802
:1030C00021B191F920108A42B8BF0A465B69D7E75F
:1030D0000C02002010B5044610B10378042B07D071
:1030E00020466FF00301FFF7CFF86FF0030010BD2B
:1030F000437833B96FF00201FFF7C6F86FF00200B2
:10310000F5E700234370037E7BB36369C0680BB1AE
:1031100022691A612269D2B15361E3789A070BD50B
:1031200090F92130C26AA2B990F920209A4203D0C6
:1031300080F8203000F0E8FAA3689BB1204600F048
:10314000C8FA00226FF0020100F022FCF4E7C3622B
:10315000E3E7916821B191F920108B42B8BF0B468B
:103160005269E0E7002000F0E5FBA378DB0706D515
:10317000084B2146D3F8940030B1FFF727FB2046D7
:10318000FFF78DF80020B2E7D3F88000FFF79EFA32
:10319000F5E700BF0C0200202DE9F04104460026AF
:1031A00001270CB9BDE8F081E378D4F814801B073F
:1031B00018D5267600212046FFF76FF8A3688BB15B
:1031C000204600F086FA00220546114600F0E0FB9A
:1031D000EB6AE56001212046C4E90463EC622776CE
:1031E000FFF758F84446DCE710B50446FFF74DF802
:1031F000EFF305832BB9EFF3108313B9EFF31183CA
:1032000033B100206FF00501FFF73EF8002010BD3C
:103210002046DFF828C0EFF3148313F0020F0AD121
:1032200013F0040FEFF308830CBF203B683B23F03F
:10323000070383F3098800DFE9E700BFB52E000824
:1032400038B504460D46FFF722F8EFF305832BB996
:10325000EFF3108313B9EFF311833BB120466FF006
:103260000501FFF711F86FF0050038BD204629462B
:10327000DFF804C000DFF8E7392F000810B5044676
:10328000FFF70AF8EFF305832BB9EFF3108313B9B7
:10329000EFF311833BB120466FF00501FEF7F4FF19
:1032A0006FF0050010BD2046DFF804C000DFF9E72D
:1032B0000130000810B50446FEF7F0FFEFF3058378
:1032C0002BB9EFF3108313B9EFF311833BB1204611
:1032D0006FF00501FEF7D8FF6FF0050010BD204626
:1032E000DFF804C000DFF9E7D530000830B500F1A1
:1032F0000C02C189D2E85F3F994202D8BFF32F8FF9
:1033000004E05C1CC2E8554F05B1F3E7C0899BB2ED
:10331000984294BF0020012030BD38B5054610B159
:103320000378052B07D028466FF00301FEF7B8FF9E
:103330006FF0030038BD437833B96FF00201FEF738
:10334000AFFF6FF00200F5E784686CB1FEF7ACFFE9
:10335000284600F0BEF90122002100F019FB2846A2
:10336000FEF7A0FF0020E5E7FFF7C0FF18B96FF0F8
:1033700010012846E3E72846FEF796FF2046D9E7E6
:1033800010B50446FEF78FFFEFF305832BB9EFF37B
:10339000108313B9EFF3118323B314B12378052BF2
:1033A00007D020466FF00301FEF77AFF6FF00300AD
:1033B00010BD63783BB96FF002012046FEF770FF45
:1033C0006FF00200F4E72046FFF790FF38B1204687
:1033D00000F09CF82046FEF767FF0020E8E76FF05A
:1033E0001001EAE72046DFF808C000DFE0E700BF91
:1033F0001B33000810B5D0E85F3F5A1C914200D83B
:103400000022C0E8542F04B1F5E798B210BD0000C7
:1034100038B51B4C00F05CFDE3680133E360236DBD
:1034200003B1984700F0E0F9002000F083FA236C24
:103430002BB1A26BA1698A4202D0A163E36338BDBC
:10344000E36B0BB1013BE363E36B002BF7D1237A12
:10345000022BF4D1656A002DF1D095F9201092F974
:1034600020309942EBD1284600F044F9A06B00F0DF
:103470005DF9284600F04EFAA563236CDEE700BF35
:103480000C02002070B5204C04F1560504F15A06D8
:10349000B4F85410D5E85F3F13B9BFF32F8F04E0A1
:1034A0005A1EC5E8502F00B1F4E79BB23BB330463B
:1034B000FFF7A0FFE36D53F8200000B30378013B52
:1034C000062BE5D801A252F823F000BFE93400082A
:1034D00091340008EF34000891340008F3340008F8
:1034E000F7340008FB340008236E9847D0E7636E7A
:1034F000FBE7A36EF9E7E36EF7E7236FF5E700203C
:10350000BDE8704000F016BA0C02002070B5164CF1
:103510000546B4F8541004F15602D2E85F3F9942D0
:1035200002D8BFF32F8F04E0581CC2E8560F06B133
:10353000F3E79BB2994205D829460220BDE87040C6
:10354000FEF7A4BD04F15800FFF754FFE36D43F804
:103550002050637A23B9054B4FF080525A6070BDFA
:103560000123A372FBE700BF0C02002000ED00E086
:1035700010B5044610B10378012B05D02046002178
:10358000FEF775FE002010BD4378002BF6D0416891
:10359000FEF76DFE6068F6E7034B10B55C692046E8
:1035A000FEF766FE204610BD0C02002008B5FEF7AF
:1035B000ADFDDFF810C000DF4FF0FF310020FEF757
:1035C00053FEFEE74D3C0008930710B502F00104DE
:1035D00022D400F1280384B153E8000F00EA01026D
:1035E0008A4203D0BFF32F8F002005E020EA0102BA
:1035F00043E8002404B1EFE710BD53E8000F084290
:1036000003D1BFF32F8F002005E020EA010243E839
:10361000002404B1F1E7EFE7806A01EA00031CB17E
:10362000994218BF0020E7E7002B08BF0020E3E71E
:10363000002310B54370044683789A0708D513F029
:10364000100F016B0E4B0FD0D3F88400FFF7BEF8BC
:10365000A378DB0712D50A4B2146D3F8880038B18E
:10366000BDE81040FFF7B2B8586FFFF72FF8EFE74B
:10367000D3F88000BDE81040FFF728B810BD00BFA8
:103680000C020020084A0021136B10B53BB94FF023
:10369000FF34C0E90431C46121B1086110BD19468D
:1036A0001B69F3E71063F9E70C02002010B561B164
:1036B00091F9202083681BB193F92040944205DAE8
:1036C000C1E90230816003B1D96010BD18469B6822
:1036D000F1E783682BB19A68826002B1D060002262
:1036E000DA601846704710B10378012B00D070479C
:1036F000C068F8E7C36833B182689A60826802B133
:10370000D3600023C360704710B501460446237898
:10371000012B07D00846FFF7EDFF2046BDE810401B
:10372000FFF7C4BFE468002CF1D110BD01230146AE
:1037300043700148FFF7BABF280200204B1C024625
:1037400030B402D130BCFFF79DBF0C480024C36ADF
:1037500013B1DD698D420BD9D161C2E904345CB18A
:1037600022611BB1D8695A61411AD96130BC7047D6
:103770001C46491B1B69EBE7C262F2E70C02002002
:1037800010B5C4694269631C10D11AB9104B1B6B88
:1037900098420AD1036903B15A6142691AB11361AF
:1037A0000023436101E00A4A136310BD1AB9084BB4
:1037B000DB6A8342F9D103691BB1D9695A6121449B
:1037C000D9614269002AEAD1014AD362EDE700BF1C
:1037D0000C02002090F82230826B13F0100F0CBF07
:1037E000602020201044704738B52C4DEC6A4CB353
:1037F000E369013BE3612BBB6378532B36D008D8D8
:10380000332B2AD0432B2BD0132B07D1FEF739FDB6
:1038100004E0732B36D016D8632B2DD02046FFF74B
:10382000D9FF01682046FEF726FD2046FFF762FF1C
:10383000FFF77CFF246924B1E369002BDCD000236F
:103840006361EC6238BD832B22D0932BE6D12046F6
:10385000FFF749FFFEF72FFDE0E7FEF70FFDDDE77D
:103860002046FFF740FFFEF70EFDD7E72046FFF7A3
:103870003AFFFEF70EFDD1E72046FFF734FFFEF7D3
:1038800010FDCBE72046FFF72EFFFEF70EFDC5E744
:103890002046FFF728FFFEF714FDBFE70C020020CB
:1038A00001230A4A90F9201043701C32936810B526
:1038B0001BB193F920408C4205DCC0E902329060D4
:1038C00003B1D86010BD1A469B68F1E70C020020D6
:1038D000044B1B682BB11B691BB1034A9269506CE6
:1038E00018477047D05B00200C020020074B596935
:1038F00051B10B6B8A6B934203D21A68044B9A4204
:1039000002D00120FEF7C2BB704700BF0C020020AE
:10391000A52E5AE2022310B543700446044B986169
:10392000FFF7E4FF2046BDE81040FEF7A5BC00BF4E
:103930000C020020154B10B5596904461A7AA8B933
:10394000022A5C6A20D1F9B1F4B194F9202091F9EE
:1039500020309A4218DD2046FFF7CCFE0846FFF7DC
:103960009FFF2046BDE81040FFF7D4BF022A06D1D2
:1039700029B190F9202091F920309A42EEDC2046BE
:10398000BDE81040FFF7D2BE10BD00BF0C02002002
:1039900070B504460E461546FEF76DFC2046FFF74F
:1039A00019FF06602046FFF7EBFE1DB1BDE8704031
:1039B000FFF7C0BFBDE87040FFF7B8BE38B5437829
:1039C0000446332B13D190F82320416AFFF7FCFD06
:1039D000054660B1014600222046FFF7D9FF2A467E
:1039E00094F82310606ABDE83840FEF748BC38BD43
:1039F0002DE9F04F85B08246CDE9023128B96FF04C
:103A00000301FEF731FC002437E0002A39D0946826
:103A10009769D2E9046544B1A30702D1D368472B63
:103A200006D86FF008010020EBE7D368002BF8D12F
:103A30003EB1700702D1002D40F0CA806FF00A013C
:103A4000F1E72FB17B1E372B03D96FF00B01EAE7AB
:103A50001827002D40F0C080D2E900830193ECB913
:103A6000614BD3F8880090B1FEF782FE044600282F
:103A700036D16FF00401FEF7F7FB204605B0BDE834
:103A8000F08F90461827154616460192E8E7012266
:103A90004821D3F88000FEF7E5FDE7E74FF0000B83
:103AA0002EBBDFF84491002D7AD1504AD9F884001A
:103AB000556D002874D0FEF75BFE064698B96FF08E
:103AC00004010020FEF7D0FBBBF1000F9BD0D9F81A
:103AD00088502146002D6DD02846FEF777FE92E7EC
:103AE0004FF0010BDCE74BF0100B4BF0020B9DF895
:103AF000043040F201127FB284F802B0E370002378
:103B00002280FD2284F8233084F822203246C4F833
:103B1000048084F8207084F821706563C4E902335E
:103B2000C4E90433C4E90633C4E90933C4E90B36F4
:103B3000A5F140033344C4E90E3A2D4B33602B4BBF
:103B40001B685B073FD5AD084FF0CC31A5F11103E1
:103B5000002B34D106EB8506403E06F134030022EB
:103B600046F8042B9E42FBD1224B2046224AC6E94E
:103B7000003A4FF08073B360039B46F8143C1A4B35
:103B80001A66FEF773FB1D4B1B68F3B19B68E3B12C
:103B900002992046984760642046FFF7CBFE6CE709
:103BA00032462946D9F87400FEF75CFD0646002827
:103BB0009BD184E7D9F88000FEF788FD23E742F81F
:103BC000041F013BC4E7A66BC7E7029B6364E3E7FE
:103BD000002F7FF437AF182769077FF42FAF472DE9
:103BE0003FF63AAF2AE700BF0C0200201CF40008A1
:103BF000A52E5AE2AD350008BD390008D05B002083
:103C0000F8B5114D07460E466C69D4B12B7A022BDC
:103C100004D02046FFF76EFD0020F8BD686A00283A
:103C2000FBD02046FEF726FB314620466770FFF7A3
:103C300085FD05F11C00FFF74CFDFFF76BFE012031
:103C4000EBE72046E9E700BF0C02002038B51B4D2A
:103C50006C69002C30D0E06AFFF79EFAA06930B1A1
:103C600000221146FFF794FEA069FEF702FB2B7AB3
:103C7000022B21D16B6AFBB1EFF309831048A363D8
:103C8000FFF727FDFFF746FE00236B61E378DB07B4
:103C900001D5A3693BB12046FFF7CAFC2046BDE829
:103CA0003840FEF7EABA0422E36062706B6BA360EF
:103CB00003B1DC606C63F1E738BD00BF0C0200208B
:103CC00028020020F8B507460E4615461C46FEF7AA
:103CD000CCFAEFF305832BB9EFF3108313B9EFF3AD
:103CE000118333B100206FF00501FEF7BDFA00200B
:103CF000F8BD384631462A462346DFF828C0EFF3A0
:103D0000148414F0020F0AD114F0040FEFF30884A6
:103D10000CBF203C683C24F0070484F3098800DFD2
:103D2000E6E700BFF13900080023FFF7CBBF000032
:103D300008B50346EFF305822AB9EFF3108212B9F2
:103D4000EFF311822AB118460021FEF790FA002005
:103D500008BDDFF808C000DFFAE700BF71350008D2
:103D600008B5EFF305832BB9EFF3108313B9EFF325
:103D7000118323B10020FEF77BFA002008BDDFF895
:103D800008C000DFFAE700BF993500080C4A30B5DB
:103D9000536C002413B11D698D420AD90161C0E939
:103DA00002431BB11D699860691A19612CB1E0606A
:103DB00030BD1C46491BDB68ECE75064F8E700BFE8
:103DC0000C02002070B5134D6C6C04B323690126FE
:103DD000013B23612369D3B9E3680BB1A2689A6000
:103DE0006B64002304F11801E86C1A46FEF7BCFF6F
:103DF00018B121460320FEF749F9E378012B07D1DA
:103E000061692046FFF7C2FF6C6C002CE2D170BDE7
:103E10006670F9E70C0200200F4B13B50F4C082118
:103E20001A6E586EFEF770FFE06490B10C4B23657C
:103E30004FF0FF3300226946E06CFEF7EBFF0028ED
:103E4000F6D1DDE90001FEF71DFADDE90030984703
:103E5000EEE702B010BD00BF1CF400080C02002009
:103E6000C53D0008A8B10C4B1B68B3FBF0F001384E
:103E7000B0F1807F0DD2094BFF22A3F54F6383F889
:103E8000132D06221A60586000209860044B1870A9
:103E900070474FF0FF307047B002002000ED00E0A7
:103EA000F8180020074B1A782AB100221A704FF038
:103EB0008062054B5A60054A0020136843F00103F5
:103EC00013607047F818002000ED00E010E000E0FB
:103ED000014B00201B68704710E000E04FF0FF30FE
:103EE00070470000024B1B6803B11847704700BFC2
:103EF000FC180020FEF790B910B50223AAB00F22DB
:103F00000024072101A8CDE901234FF4A053CDE9F6
:103F100003434FF48053059301F032FC58B94FF43A
:103F20000013259006A8069301F022FDB0FA80F058
:103F300040092AB010BD2046FBE700000F490020D1
:103F4000D1F8883043F47003C1F888300C4B1A68FC
:103F500042F001021A6098601A6822F0847222F41A
:103F600080321A60074A5A601A6822F480221A6066
:103F7000D8604FF000638B60704700BF00ED00E039
:103F800000380240103000241D4B1A6C42F0805261
:103F900000B51A6491B01B6C03F080530193019B30
:103FA000184B1A6842F440421A601B6803F44043FD
:103FB0000293029B01230393B8B94FF480334FF46B
:103FC000800204930223042103A80D93CDE9093252
:103FD000D822CDE90B120922CDE90E2301F0DEF93A
:103FE00030B1002011B05DF804FB4FF4A023E6E7E8
:103FF00001F09CF90028F4D1FFF77EFFF2E700BF43
:104000000038024000700040164B082010211A6C46
:1040100042F0805200B51A648FB01B6C01220591EA
:1040200003F08053049200220093009B022302922B
:1040300001930B93CDE90732D822CDE90902092279
:1040400001A8CDE90C2301F0A9F918B100200FB0A7
:104050005DF804FB01F06AF90028F7D1FFF74CFF87
:10406000F5E700BF0038024008B50120FFF78CFFDC
:1040700018B9FFF7C9FF00B9FEE708BDDFF820D087
:10408000002103E0074B5B58435004310648074BBF
:1040900042189A42F6D3FFF751FFFCF7CDF870476C
:1040A00000000820A0FF0008F8010020700C00208C
:1040B000FEE700007FB5A1F1F00304460D469BB278
:1040C0000F2B4BD93A492846FCF7C6FF38492060E8
:1040D0002846FCF7DDFF364906462846FCF780FFF8
:1040E0002368013304D13C2232493348FDF78AFB6F
:1040F000731C04D13D222F493048FDF783FB002378
:104100004FF48032C6F30436A4F848502364236188
:10411000A361E3602363636184F84A60C4E9012317
:104120000122C4E90833C4E90A33E2612368244A5E
:1041300093421ED1234B5A6C42F480725A645B6CDA
:1041400003F480730193019B204600F0BBF860B339
:104150001D4804B0BDE87040FDF732BC1B4928463D
:10416000FCF77AFF194920602846FCF791FF0646C4
:10417000B6E7174A93420AD1124B5A6C42F40072C6
:104180005A645B6C03F400730293029BDCE7114AF0
:104190009342D9D10B4B5A6C42F480625A645B6CE7
:1041A00003F480630393039BCEE704B070BD00BFAC
:1041B000E8F40008BCF90008FBF9000825FA00083B
:1041C00000200140003802403EFA0008CCF500080B
:1041D00000210140002201401FB5044610220021A9
:1041E000684605F08BFC012394F84A20CDE90133A1
:1041F000122A3FD8DFE802F00C0B0A1E20222426E8
:10420000282A2C2E30323436383A3C0002230093D0
:104210006946204600F0B4F9204600F0FDF80A2176
:10422000204600F059F928BB204600F0A5F980B2DD
:1042300004B010BD0323EAE70423E8E70523E6E71B
:104240000623E4E70723E2E70823E0E70923DEE7A4
:104250000A23DCE70B23DAE70C23D8E70D23D6E7A4
:104260000E23D4E70F23D2E7034BD0E71123CEE789
:104270001223CCE70020DBE712000010704700009B
:10428000074A032008B5136843F40073136000F075
:1042900013FA0F2003F04AF8FFF7F0FF002008BDE3
:1042A000003C0240024A136801331360704700BFAC
:1042B000D45B0020014B1868704700BFD45B00201E
:1042C0007047000010B50446002800F09F80036C82
:1042D00023B9436480F83C30FFF7F2FF236CDB0620
:1042E00000F19280236C23F4885323F0020343F0FF
:1042F00002032364464B5A6822F440325A605A68DB
:1043000061680A435A60236821695A6822F48072FE
:104310005A605A6842EA0122A1685A605A6822F03B
:1043200040725A605A680A43E1685A609A6822F4F7
:1043300000629A609A680A4336499A60A26A8A4281
:1043400056D0996821F07061996099680A43E16AD2
:104350009A609A6822F040529A609A680A439A607A
:104360009A68A16922F002029A609A6842EA4102C0
:104370009A60226A002A43D05A6842F400625A6066
:104380005A6822F460425A604FF4604292FAA2F2F4
:10439000B2FA82F1626A5868013A8A4002435A606E
:1043A0000020DA6AE16922F470020139DA62DA6A1D
:1043B00042EA0152216BDA629A6822F400729A6032
:1043C0009A6842EA412261699A609A6822F480629E
:1043D0009A609A6842EA81229A606064236C23F0B2
:1043E000030343F001032364002384F83C3010BD31
:1043F0009A6822F070629A609A6822F04052AEE7A2
:104400005A6822F40062CAE70120EDE70120EEE7D6
:10441000002301400100000F002382B0019390F8B7
:104420003C30012B4ED0012380F83C3003689A6861
:10443000D10705D59A68D20714D4002002B070477E
:104440009A68214942F001029A60204A1268B2FB40
:10445000F1F202EB42020192019A002AEAD0019A9B
:10446000013AF8E7026C22F4E06222F0010242F421
:10447000807202645A68510505D5026C22F44052DC
:1044800042F480520264026C12F4805202D0426CF8
:1044900022F006024264002280F83C206FF02202E3
:1044A0001A600B4A5268D20608D1986810F0405042
:1044B000C3D19A6842F080429A60BFE7054A9342AE
:1044C000BBD1F2E70220B9E740420F00B002002062
:1044D000002301400020014003689A6870B556052A
:1044E00004460D460BD59B68D80508D5236C0120E2
:1044F00043F020032364002384F83C3070BDFFF7B1
:10450000D9FE064623681A6892070CD56FF012028E
:104510001A60226C42F4007222649A6812F0405FC2
:1045200013D00020EAE7691CEDD045B9236C0320C5
:1045300043F004032364002384F83C30DEE7FFF7F4
:10454000B9FE801BA842DDD9F0E7A269002AE8D1B4
:10455000DA6A12F4700F02D09B685B05E1D4236C19
:1045600023F480732364206C10F48050D9D1236C21
:1045700043F001032364C1E70368D86C704700006F
:104580000023F7B5019390F83C30012B6DD00C68F7
:1045900001238E68092C80F83C30A5B2036830D91D
:1045A00005EB45024FF0070CDF681E3A0CFA02FCDF
:1045B00027EA0C07DF603B4FBC421DD1DA6842EAB4
:1045C0000662DA604968062901EB810229D8053ABA
:1045D0001F26596B964005FA02F221EA060159633B
:1045E000596B0A435A63304A934236D0002380F80D
:1045F0003C30184603B0F0BDDF6806FA02F23A43D9
:10460000DFE704EB44024FF0070C1F690CFA02FCD1
:1046100006FA02F227EA0C071F611F693A431A6182
:10462000D0E70C294FF01F010BD8233A1E6B9140A5
:1046300005FA02F226EA01011963196B0A431A63AB
:10464000D1E7413ADE6A914005FA02F226EA010119
:10465000D962D96A0A43DA62C5E7122C07D1134A34
:10466000536843F480035360C0E70220C2E70D4B58
:104670009C4201D0112CB9D10C499C424A6842F4A9
:1046800000024A60B2D10A4B0A4A1B68B3FBF2F23D
:104690000A2353430193019B002BA7D0019B013BAD
:1046A000F8E700BF12000010002001400023014085
:1046B000B002002040420F00074A0002D36800F415
:1046C000E06023F4E0631B041B0C43F0BF6343F47E
:1046D00000330343D360704700ED00E000280DDB9A
:1046E0004309012200F01F00203302FA00F0044ABF
:1046F00042F82300BFF34F8FBFF36F8F704700BFA7
:1047000000E100E090F83530022B03D080234365B0
:10471000012070470268052380F8353000201368B7
:1047200023F00103136070477047704770B502684B
:1047300041F214060446955915F0400521D0FCF7C6
:1047400005FC236840229A51012384F84430002359
:1047500084F84530236841F214054FF480325A51F1
:104760005B591B040CD52046FFF7DFFF23684FF48D
:1047700000425A51012384F84430002384F8453024
:1047800070BD9359DA07E5D5FFF7CEFF0123226804
:10479000935184F8443084F84550DBE703689A6904
:1047A000910701D500229A629A69D20703D49A69C7
:1047B00042F001029A61704730B50568C1F3090102
:1047C00003986C68034324F07F7443EA024324F4A3
:1047D00059340B4324F47F7424F0030423436B60A7
:1047E00030BD000001F00403154A002B30B5446BC6
:1047F00014BFB8230023944201F0120202D0114DDD
:10480000AC420FD101F01101112908BF43F0900310
:10481000122A01D143F06003016800200A681343A3
:104820000B6030BDCC0748BF43F0F203890748BF97
:1048300043F0F403122A08BF43F02003ECE700BF63
:1048400033510008F34E000811F0010307D090F82F
:10485000413003F02803282B0CBF4223F2238A07A0
:1048600009D590F8412002F02802282A0CBF43F015
:10487000440343F0F4034A0701684FF000000A685C
:1048800048BF43F0B80322EA03030B607047704748
:1048900010B5044600284AD090F8413003F0FF02DA
:1048A0001BB980F84020FFF7F2FF242384F8413041
:1048B00023681A6822F001021A60626822F07062AE
:1048C0001A619A6822F400429A60D4E9022101290F
:1048D00024D142F400429A605A68002042F00072EB
:1048E00042F400425A60DA6822F40042DA60D4E905
:1048F00004210A43A16942EA0122DA60D4E90721CE
:104900000A431A601A6842F001021A6020236064A8
:1049100084F84130206384F8420010BD42F4044220
:1049200002299A60D8D14FF400625A60D4E701207E
:10493000F3E7000037B5044690F84100202833D152
:1049400094F8400001282FD00120626284F84000D2
:10495000212084F84100102084F842000020606487
:104960006385069B23F08073E362104B6363638D62
:10497000FF2B15D9FF2323854FF080734FF4005090
:10498000002594F8282000902046FFF715FF84F8B2
:10499000405001212046FFF725FF284603B030BDD7
:1049A000638D2385E36AE9E70220F7E717500008E3
:1049B00037B5044690F84100202833D194F84000E0
:1049C00001282FD00120626284F84000222084F860
:1049D0004100102084F84200002060646385069B3B
:1049E00023F08073E362104B6363638DFF2B15D953
:1049F000FF2323854FF080734FF41050002594F867
:104A0000282000902046FFF7D7FE84F8405002216E
:104A10002046FFF7E7FE284603B030BD638D2385AF
:104A2000E36AE9E70220F7E71750000890F8412011
:104A3000202A08B509D12822042180F84120044AFF
:104A40004263FFF7CFFE002008BD0220FCE700BF55
:104A5000454D00080268436B9169126803B118471D
:104A6000704738B50025044680F8425090F8413030
:104A7000212B4FF0200380F841300BD111234563E7
:104A800001210363FFF7E0FE84F84050204602F066
:104A900041FF38BD1223456302210363FFF7D4FEB3
:104AA00084F84050204602F054FFF2E738B5002564
:104AB000044680F8425090F84130292B0DD128232C
:104AC000012180F8413021230363FFF7BDFE84F804
:104AD0004050204602F07AFF38BD90F841302A2B32
:104AE000FAD12823022180F8413022230363FFF703
:104AF000ABFE84F84050204602F06CFFECE700006B
:104B0000164B202210B5C36200230446036343639F
:104B100080F8412080F842304B0711D503685A6A6B
:104B2000436A591C41621A70038D4BB1013B0385E6
:104B3000438D013B9BB24385436C43F004034364C4
:104B400007212046FFF780FE236810222046DA6105
:104B5000002384F8403002F041FF10BD0000FFFF49
:104B6000704770470023344A10B580F8423004463D
:104B7000C2624385436C1943416490F84130282B4D
:104B800007D090F84130292B03D090F841302A2BE0
:104B900021D103212046FFF757FE282384F8413016
:104BA00000232363254B6363236819681A6811F493
:104BB00080411DD022F48042A06B1A60204B036517
:104BC000002384F84030FFF79DFD70B3A06B036DA8
:104BD000BDE8104018470721FFF736FE94F8413032
:104BE000602B02D0202384F8413000232363DAE7CE
:104BF00012F400420DD01A68E06B22F400421A60F1
:104C00000F4B036584F84010FFF77CFD68B1E06B43
:104C1000DDE794F84130602B08D1202384F8402050
:104C2000204684F8413002F0DBFE10BD84F84020BD
:104C3000204602F0A5FEF8E70000FFFF454D000802
:104C40005752000838B52022036804460D46DA6141
:104C500008220721DA61FFF7F7FD236820465A682A
:104C600042F400425A605A6822F0FF7222F48B32FA
:104C700022F4FF7222F001025A60FFF78FFD2268D2
:104C80001368580402D41368190409D594F8413004
:104C9000212B0CBFA36BE36B1B685B689BB2638526
:104CA000638D9BB21BB1636C43F0040363646B07B9
:104CB00010D5636A526A591C61621A70238D4BB118
:104CC000013B2385638D013B9BB26385636C43F09D
:104CD0000403636400232363636384F84230636CDA
:104CE0006BB1616C2046FFF73DFF94F84130282BF3
:104CF00013D129462046BDE83840FFF701BFE26ADC
:104D000012F5803F0AD00E4A204684F84030E26215
:104D1000202284F8412002F061FE38BD94F8412041
:104D2000204684F84030222A4FF0200284F84120A7
:104D300002D102F04FFEF0E702F048FEEDE700BFBF
:104D40000000FFFF2DE9F84390F8403004460E467E
:104D50001746012B00F0CB800123CD0680F84030B0
:104D60003ED5D0063CD5638D9BB28BBBE36AB3F1D5
:104D7000007F03D0E36AB3F1007F14D194F841308F
:104D8000282B10D131462046FFF7BAFEB20605D5D2
:104D9000BB0603D531462046FFF754FF002084F8B8
:104DA0004000BDE8F883E26A236812F5803F0CD02A
:104DB00094F84120292A08D110222046DA61FFF711
:104DC000EDFC2046FFF772FEE0E71022DA61DDE736
:104DD00023681022DA61636C43F004036364D5E74F
:104DE00071071AD57A0718D5638D9BB263B1236812
:104DF0005A6A636A591C61621A70238D013B2385CC
:104E0000638D013B9BB26385638D9BB2002BBDD14B
:104E1000E36A13F5803FB9D0D3E7330746D53D07A2
:104E200044D594F84120236802F02802282A37D17B
:104E30009A69E1689D69C2F3004802299A684FEABD
:104E40001545D3F80C9005F0FE0520D1C2F30902F8
:104E500085EAD21515F006050FD1A16C0131A164C8
:104E6000A16C022992D10821A564D96184F840502F
:104E70004146204602F0A0FD88E704212046FFF7C6
:104E8000E3FC002309F0FE0284F84030F0E704213F
:104E90002046FFF7D9FC00232A4684F84030E7E794
:104EA0000822DA61002384F840306FE7B0077FF50D
:104EB0006DAFB9077FF56AAF638D9BB26BB1636A63
:104EC0005A1C626222681B789362638D013B9BB21D
:104ED0006385238D013B238558E7E36AB3F1807F27
:104EE0003FF46FAFE36A002B3FF46BAF4EE7022055
:104EF00057E790F84030012B10B504462ED001231F
:104F000080F84030C80619D5D30617D594F841303B
:104F100010212268212B0CBFA36BE36B1B685B681D
:104F2000D161B3FA83F35B091BB1002084F8400020
:104F300010BD636C43F004036364F6E7080705D50E
:104F4000130703D523680822DA61EEE78806ECD55B
:104F50009306EAD52046FFF775FEE6E70220E7E76D
:104F60000368202210B5DA6104465A6822F0FF7205
:104F700022F48B3222F4FF7222F001025A600022E6
:104F800002634263A2F58032C262CA0605D51022CE
:104F9000DA61436C43F0040343642046FFF7FEFBF1
:104FA0000321FFF751FC636C1BB994F84120602A80
:104FB00005D1616C2046BDE81040FFF7D3BD94F8E1
:104FC0004120212A11D1202284F84030204684F843
:104FD000412094F8422084F84230402A02D1FFF761
:104FE000BFFD10BD02F096FCFBE794F84120222A99
:104FF000F7D1202284F84030204684F8412094F8EC
:10500000422084F84230402A02D1FFF7AAFDE8E7A7
:1050100002F09FFCE5E790F84030012B73B50446A1
:105020000D46164600F083800123CA0680F8403002
:1050300017D5F30615D503681022DA61436C43F0E7
:1050400004034364FFF7AAFBAA0605D5B30603D5FC
:1050500029462046FFF784FF002084F8400002B074
:1050600070BD68070FD571070DD523685A6A636A4A
:10507000591C61621A70238D013B2385638D013BAE
:105080009BB26385E0E7AA0708D5B30706D5636A34
:105090005A1C626222681B789362ECE7280631D5BD
:1050A00071062FD5208D226800BB638D9BB2EBB1BA
:1050B0005168638DC1F30901FF2B08D9FF224FF01E
:1050C0008073009022852046FFF776FBBCE7628D57
:1050D000E36A92B213F5803F2285D2B202D0E36A2E
:1050E0000090F0E700904FF00073ECE753689A01EE
:1050F00003D42046FFF7B5FCA6E740212046FFF782
:1051000031FDA1E76B069FD570069DD5638D9BB2DF
:10511000002BF2D123685A68910195D4E26A12F506
:10512000803FE6D15A6842F480425A608CE7022000
:1051300095E790F84030012B13B5044658D0012371
:1051400080F84030CB0613D5D30611D50368102262
:105150001221DA61436C43F004034364FFF742FB1E
:105160002046FFF71BFB002084F8400002B010BD72
:10517000080635D5530633D523681A6822F0400255
:105180001A60628D92B232B35968638DC1F309011E
:10519000FF2B1BD9FF2323854FF08073002094F849
:1051A000282000902046FFF707FB638D228D9B1A75
:1051B0009BB2638594F84130222B23681A680CBF98
:1051C00042F4004242F480421A60CCE7638D2385AA
:1051D0004FF00073E2E740212046FFF7C3FCC2E72F
:1051E0008806C0D59306BED52046FFF7B9FEBAE7BC
:1051F0000220BBE7036899691A6810B4CC0508D58A
:10520000140606D5446C44F0010444644FF48074E1
:10521000DC614C0508D5140606D5446C44F008043E
:1052200044644FF48064DC61890508D5120606D514
:10523000426C42F0020242644FF40072DA61436C45
:1052400013F00B0F04D0416C5DF8044BFFF78ABCE0
:105250005DF8044B7047806B026808B5536843F4EF
:10526000004353600023826B1365C26B136590F893
:105270004130602B05D1202380F8413002F0B0FB93
:1052800008BD02F07DFBFBE790F84120D2B2202A56
:1052900010B51DD190F84030012B19D0242380F88F
:1052A000413003681C6824F001041C601C6824F46D
:1052B00080541C601C6821431960196841F0010189
:1052C0001960002380F8412080F84030184610BD56
:1052D0000220FCE7064A0129136923F00403136145
:1052E00001D130BF704740BF20BF20BF704700BF13
:1052F00000ED00E00B4A0129136823F0030340EAA4
:105300000300094B10601A6942F004021A6105D1CA
:1053100030BF1A6922F004021A61704740BF20BFF3
:1053200020BFF6E70070004000ED00E0194B37B5F4
:105330001A6C194C42F080521A641B6C03F08053B3
:105340000193019B236843F480332360FEF7B2FF8F
:1053500005466368DA030CD5236843F40033236001
:10536000FEF7A8FF0C4C054663689B030AD5002096
:1053700006E0FEF79FFF401BB0F57A7FE9D90320D6
:1053800003B030BDFEF796FF401BB0F57A7FEBD936
:10539000F5E700BF003802400070004003682DE9C7
:1053A000F3410446D80710D42368990761D42368D1
:1053B000190700F1B08023685A0700F1D180A26973
:1053C000002A40F03B81002015E09A4B9A6802F0D9
:1053D0000C02042A07D09A6802F00C02082A0DD1A8
:1053E0005B685A020AD5934B1B689B03DCD5636844
:1053F000002BD9D1012002B0BDE8F08163688D4D4A
:10540000B3F5803F11D12B6843F480332B60FEF756
:1054100051FF884D06462B689F03C5D4FEF74AFF0F
:10542000801BC828F7D90320E5E79BB92B6823F434
:1054300080332B602B6823F480232B60FEF73AFF28
:1054400006462B689803AFD5FEF734FF801BC828AB
:10545000F7D9E8E7B3F5A02F2B6803D143F48023F5
:105460002B60D0E723F480332B602B6823F4802358
:10547000CCE7704B9A6812F00C0F07D09A6802F0D4
:105480000C02082A16D15B68590213D4694B1A68BA
:10549000920702D5E268012AACD11868F82292FA84
:1054A000A2F2B2FA82F122698A4020F0F8010A439E
:1054B0001A607CE7E3685F4DE3B12B6843F00103BA
:1054C0002B60FEF7F7FE06462B689F070CD5296870
:1054D000F82393FAA3F3B3FA83F22369934021F0FC
:1054E000F80213432B6062E7FEF7E4FE801B0228FC
:1054F000EAD998E72B6823F001032B60FEF7DAFE68
:1055000006462B6898077FF552AFFEF7D3FE801B47
:105510000228F6D987E76369464D83B16B6F43F084
:1055200001036B67FEF7C6FE06466B6F9B073FF5F0
:1055300042AFFEF7BFFE801B0228F6D973E76B6F00
:1055400023F001036B67FEF7B5FE06466B6F9F07FE
:105550007FF531AFFEF7AEFE801B0228F6D962E779
:10556000344B1A6CD00027D41A6C012642F08052BA
:105570001A641B6C03F080530193019B2E4D2B6822
:10558000D9051BD5A3682B4D012B27D12B6F43F0D9
:1055900001032B6741F28835FEF78CFE254F8046CC
:1055A0003B6F9B073FD5002E3FF409AF214A136C98
:1055B00023F08053136402E70026DFE72B6843F4EF
:1055C00080732B60FEF776FE07462B68DA05D9D488
:1055D000FEF770FEC01B6428F7D924E7ABB92B6F28
:1055E00041F2883823F001032B672B6F23F004036B
:1055F0002B67FEF75FFE07462B6F9807D3D5FEF7A4
:1056000059FEC01B4045F7D90DE7052B2B6F03D181
:1056100043F004032B67B9E723F001032B672B6FDB
:1056200023F00403B5E7FEF745FEA0EB0800A8420F
:10563000B6D9F8E60038024000700040324DAB6841
:1056400003F00C03082B3FF4D5AE2B68022A23F09D
:1056500080732B604AD1FEF72DFE06462B68990118
:105660003ED447F6C07797FAA7F74FF44032B7FA1F
:1056700087F792FAA2F24FF07060B2FA82F690FACF
:10568000A0F04FF0E041B0FA80F091FAA1F1D4E936
:105690000732B1FA81F11343626A02FA07F7A26A8C
:1056A00052083B43013AB2401343E26A02FA00F067
:1056B000226B154C034302FA01F10B436B602B681C
:1056C00043F080732B60FEF7F5FD054623689A01D1
:1056D0003FF579AEFEF7EEFD401B0228F6D9A2E6B3
:1056E000FEF7E8FD801B0228B8D99CE6FEF7E2FD34
:1056F00004462B689B017FF566AEFEF7DBFD001BC1
:105700000228F6D98FE600BF00380240194A936894
:1057100003F00C03042B10B503D0082B03D016485C
:1057200000E0164810BD516847F6C074536801F098
:105730003F0113F4800F536894FAA4F0B0FA80F09C
:1057400003EA04034FF4403223FA00F314BF0B487A
:105750000948B0FBF1F05843064B5B6892FAA2F29D
:10576000B2FA82F203F44033D34001335B00B0FB62
:10577000F3F0D7E7003802400024F40000127A006A
:10578000504A136803F00F038B422DE9F0410446A1
:105790000D462ED32268960738D4D0073ED4494A06
:1057A000136803F00F03AB4279D82268510700F168
:1057B0008180130707D5444A2169936823F4604325
:1057C00043EAC1039360FFF7A1FF3F4BF0229B68C0
:1057D00092FAA2F2B2FA82F203F0F003D3403B4A0B
:1057E000D35CD8403A4B18600F2001F09FFD002099
:1057F0000AE0136823F00F030B431360136803F0F0
:105800000F038B42C6D00120BDE8F0812E49A0686D
:105810008B6823F0F00303438B60BEE761682A4B7B
:1058200001291A681CD112F4003FECD09A6841F2A9
:105830008838254F22F003020A439A60FEF73AFDAA
:1058400063680646012B13D1BB6803F00C03042BDD
:10585000A5D0FEF72FFD801B4045F5D90320D3E7E7
:10586000022902D112F0007FDFE712F0020FDCE71D
:10587000022B0FD1BB6803F00C03082B8FD0FEF76F
:1058800019FD801B4045F5D9E8E7FEF713FD801BA5
:105890004045E3D8BB6813F00C0FF6D17FE71368DF
:1058A00023F00F032B431360136803F00F03AB4285
:1058B000A9D17AE70449E0688B6823F4E0530343F5
:1058C0008B6076E7003C02400038024065FA000831
:1058D000B0020020084B4FF4E0529B6892FAA2F20B
:1058E000B2FA82F203F4E053D340044AD35C044A90
:1058F0001068D840704700BF0038024075FA0008B1
:10590000B0020020084B4FF460429B6892FAA2F26A
:10591000B2FA82F203F46043D340044AD35C044AEF
:105920001068D840704700BF0038024075FA000880
:10593000B00200200F2303600B4B9A6802F00302B1
:1059400042609A6802F0F00282609A6802F4E052C3
:10595000C2609B68DB0803F4E0530361034B1B68E0
:1059600003F00F030B60704700380240003C024018
:1059700003682DE9F34713F0010604460BD0BB4A38
:10598000916821F400019160466B91683143B6FA49
:1059900086F67609916013F4002512D0B349E56BC1
:1059A000D1F88C20B5F5801F22F4401208BF0126E3
:1059B00042EA050216BFB5FA85F500256D09C1F862
:1059C0008C20DF0210D5A948216CD0F88C20B1F5CD
:1059D000800F22F4400242EA0102C0F88C2000F05D
:1059E0002582002908BF012513F0807F18BF0126FA
:1059F000980631D59D4B9E4F1A6C42F080521A6426
:105A00001B6C03F080530193019B3B6843F480734C
:105A10003B60FEF74FFC80463B68D90540F10882A9
:105A2000924F3B6F13F4407340F00D82236B03F4ED
:105A30004072B2F5407F8D4A40F02B82916823F08E
:105A4000704021F4F81120F4407001439160C3F3D9
:105A50000B03116F0B4313672368DF060CD5834AD2
:105A6000D2F88C1021F08071C2F88C10D2F88C1012
:105A7000A06B0143C2F88C10580408D57B49606EB6
:105A8000D1F8902022F440320243C1F8902019044A
:105A900008D57649A06ED1F8902022F44022024326
:105AA000C1F89020DA0308D57049E06ED1F8902053
:105AB00022F440120243C1F890209F0308D56B499D
:105AC000206FD1F8902022F440020243C1F89020C8
:105AD000580608D56549606CD1F8902022F0030281
